:100000007826002071070100B1A00000B5A0000013
:10001000A70A0A010001000004180FAC00255400D3
:1000200000000000000000000000000000000000D0
:100030000000000004DC03000000000000000000DD
:100040000000000000000000FFFFFFFFFFFFFFFFB8
:10005000FFFFFFFF00E007000000000000000800B5
:10006000FFFFFFFFFFFFFFFF280000000000000070
:100070000000000000000000000000000000000080
:10008000CC4A0020CC4A0020CC4A0020CC4A002098
:10009000782600209030040068BD0300A0170020DF
:0C00A0007017002000000800CC4A00206F
:100100007826002071070100B1A00000B5A0000012
:10011000BDA00000B9A00000C1A000001CA200000A
:100120001CA200001CA200001CA200001CA20000D7
:10013000C5A000001CA200001CA20000230A0100B0
:10014000A5CE000051570300E5A400001CA200004A
:1001500059520300BD5703005D5703007557030054
:100160005557030031C80000FDC80000FDDF000046
:10017000118000001CA200001CA2000059FA00001F
:100180001CA200001CA2000021C900001CA200004B
:100190001CA200001CA200001CA200001CA2000067
:1001A0001CA200001CA200001CA200001CA2000057
:1001B000C1570300595703006D3E030015CC0000E2
:1001C000015803001CA20000693E03001CA20000AD
:1001D0001CA200001CA200001CA200001CA2000027
:1001E0001CA200001CA200001CA200001CA2000017
:0C01F0001CA200001CA200001CA20000C9
:1001FC0038B50D4604460EF0D5FD2870601CC0B213
:10020C000EF0D0FD6880A01CC0B20EF0CBFDA88013
:10021C0038BD00002DE9F047804602F0D5FE0021E4
:10022C004FF0FF300EF02AFE3B4E077888F00104A9
:10023C002046B11CFFF7DCFFB8F1000F03D140469C
:10024C000EF0B0FD3070E01CC0B20EF0ABFD003013
:10025C0018BF0120304D3072201DC0B205F10901CC
:10026C000EF083FE20B902202C492D4A2D4B4DE077
:10027C00601D0023C0B285F829300EF093FD68850F
:10028C00A01DC0B20EF08EFD8146E01DC0B20EF076
:10029C0089FD80B220B10123A88585F82E3003E0BA
:1002AC0085F82C9085F82E00A7F1610304F1080065
:1002BC005D42C0B25D410EF075FD1B4C86F83000FE
:1002CC00B8F1000F0AD01DB1FF232370174A21E0AB
:1002DC0009200EF067FD164A20701BE045B10E4850
:1002EC0002F05FFA2070FF3818BF01200F4A08E0B7
:1002FC000A200EF057FD0849C0B2207002F022FA15
:10030C000C4A80F00100C3B20B490220BDE8F04753
:10031C000EF0EDB80023F7E7142D002054BF0300B6
:10032C005BBF03005FBF03007826002050BF0300B3
:10033C00A4080400940404006ABF030070B58EB0D6
:10034C00002305934B8806460C462BB1ADF81430B0
:10035C0001238DF8163002E00B798DF81430227BD6
:10036C00A1680023CDE9002306AD0123029362228C
:10037C00039505A805F059F9304603F01BFE064617
:10038C0020782DF0C3F8009503460349022032462D
:10039C000EF0ADF80EB070BD72BF03002DE9F04346
:1003AC008FB01F46002305934B8881460C46904620
:1003BC002BB1ADF8143001238DF8163002E00B7917
:1003CC008DF81430A2890023CDE90023022506AE56
:1003DC0002950396A168612205A805F026F9484606
:1003EC0003F0E8FD814620782DF090F80096034646
:1003FC000E4928464A460EF067F8A47B28464CB9AD
:10040C000B490EF061F828464146BAB223460EF06D
:10041C00EBF803E0074922460EF056F80220064995
:10042C000EF065F80FB0BDE8F08300BF86BF030087
:10043C009BBF03009EBF03007FCF0300F0B58FB0BE
:10044C00002305934B8807460C462BB1ADF81430AE
:10045C0001238DF8163002E00B798DF814304FF62D
:10046C00FF73ADF8123020690023A0218DF81130F4
:10047C0000F04DFF70B1022120690A460DF1120304
:10048C0000F07AFF30B12069022101220DF1110335
:10049C0000F072FFBDF81220A1680023022506AE01
:1004AC00CDE9002302956122039605A805F0BDF85D
:1004BC00384603F07FFD074620782DF027F89DF88D
:1004CC001120019203460096284603493A460EF045
:1004DC000EF80FB0F0BD00BFA3BF03002DE9F34130
:1004EC000446884602202249BDF8205017461E4675
:1004FC000DF0EAFF20462DF02DF81E490246022091
:10050C000DF0E2FF032C2CD140462CF0FFFF1949D3
:10051C00024602200DF0D8FF1DB338460C2101AA6B
:10052C002DF0AEF808B1019C01E04FF0FF342046ED
:10053C002CF0FEFF1049024602200DF0C5FF0220F0
:10054C000CB1282C08D10DF0A7FF50B10220314678
:10055C002A460EF03DF804E031462A4600230EF000
:10056C0043F8022005490DF0C2FF02B0BDE8F0814E
:10057C00BEBF0300B4D20300CDBF03007FCF030086
:10058C0070B50C46467805781B49228E92B0022035
:10059C000DF09AFF20464FF4807101AA6EB105F060
:1005AC009FF885B12E238DF822308DF823308DF8ED
:1005BC00243000238DF8253003E005F049F8002D98
:1005CC00F0D10E4B00E00E4B0E49022001AA0DF0AB
:1005DC007BFF02200C490DF077FF02200DF05CFF31
:1005EC0018B104F120000DF099FF022003490DF021
:1005FC007EFF002012B070BDD6BF03007FCF03007A
:10060C00C6C10300DFBF0300EABF030010B50D4CE9
:10061C0092B001AA20464FF4807105F019F801AA96
:10062C00022009490DF063FF01AA20464FF48071A6
:10063C0005F056F80220054901AA0DF058FF12B03A
:10064C0010BD00BF55300020F4BF0300FCBF0300F9
:10065C002DE9F043022087B023490DF048FF02201A
:10066C0022490DF044FF022021490DF040FF0025E6
:10067C00204B1B689D4234D21F4C4FEAC50804F531
:10068C0040791E4B18F803702146384604AA0823FB
:10069C0001F0D4F90646F8B909F040FF236818496F
:1006AC001A78002A5A8800929B880193A388029397
:1006BC00E38803934FF002000CBF632373233A4685
:1006CC000DF002FF022004A9228A33460DF08CFFA4
:1006DC00022005490DF00BFF18344C45D1D10135E2
:1006EC00C6E707B0BDE8F0837FCF03000AC0030064
:1006FC0036C00300A0F4030030F50300C0F2030081
:10070C0062C0030008B500200EF04CFBBDE80840A9
:10071C00C0B201F0D7B8000030B5002085B00EF0A3
:10072C0041FB694604460120FFF762FD04200EF0F0
:10073C0039FB002281B2684601F0F0F805462946E3
:10074C00E0B202AA082301F079F904460D490E4AD9
:10075C00022023460DF0B8FE6CB902200B490DF0B7
:10076C00B3FE02A9284601F059F902A982B2234628
:10077C0002200DF039FF022005490DF0B8FE05B03E
:10078C0030BD00BF6ABF03005206040096D20300BE
:10079C007FCF030030B5002087B00EF003FB04A917
:1007AC0005460120FFF724FD04200EF0FBFA0DF1A5
:1007BC000F01044605200EF061FB9DF80F200092FE
:1007CC00034604A9A2B2E8B201F00EFE0349044AA2
:1007DC00034602200DF08BFE07B030BD6ABF03004C
:1007EC0086C0030070B502F0EFFB00200E49FFF746
:1007FC00FFFC0EF05BFA03240646B4420CD20B4B02
:10080C001D7820466A1C1A700EF0CCFA084B013485
:10081C0023F81500E4B2F0E702200649064A00234B
:10082C00BDE870400DF063BE502D00204E2D002011
:10083C00562D00206ABF03005206040013B502F0C7
:10084C00C3FB1349134C0020FFF7D2FC03200EF01E
:10085C00A9FA0DF10701208004200EF00FFB9DF882
:10086C000720082A01460AD80B4809F0D3FC9DF84A
:10087C000730A36002200949094A002303E0074915
:10088C00074A022089230DF032FE02B010BD00BFD2
:10089C00502D00207C260020462D00206ABF03002E
:1008AC0086C0030001F0A7BF10B50220BEB01B49E3
:1008BC000DF01DFE02201A490DF019FE0024E0B2C5
:1008CC0005A901F02BFF18B39DF816209DF81430E4
:1008DC001449002A0CBF632273220092BDF8182021
:1008EC000192BDF81A2002929DF844200392022036
:1008FC0022460DF0E9FD05A812A901F08EFF20A9F2
:10090C0012A804F03FFF0220074920AA0DF0EFFDCA
:10091C000134082CD3D13EB010BD00BF8CC00300F5
:10092C00DEC0030030C10300B5D203000020FFF786
:10093C0071BC000010B502F047FB00200EF032FA3B
:10094C00074BC0B2187001F053FF80F0010305494A
:10095C00054A0220DBB2BDE810400DF0C8BD00BF57
:10096C00782600206ABF030052C103000120FFF764
:10097C0051BC000010B502F027FB08490020FFF71E
:10098C0037FC03200EF00EFA054B06491870064A88
:10099C0002200023BDE810400DF0A9BD502D002011
:1009AC00782600206ABF030052C1030007B51C4B18
:1009BC001B7833B11B4A00921B491C4A01F0A8F961
:1009CC002AE01B4A11884FF6FF73994206D0194B47
:1009DC0000931549012301F04BFA1DE01649174B02
:1009EC004A8D72B11A78FF2A05D1154A03B05DF809
:1009FC0004EB01F0C9BF124B03B05DF804EB01F03E
:100A0C00CDBF1A78FF2A06D007490D4B03B05DF80D
:100A1C0004EB01F0CABF702003B05DF804FB00BF0B
:100A2C004E2D0020A9030000502D0020562D002033
:100A3C007C26002049040000142D0020782600207C
:100A4C004903000010B502F0E9FF0449044A0346CB
:100A5C00BDE8104002200DF04ABD00BF6ABF030084
:100A6C0059C1030007B500206946FFF7C1FB684672
:100A7C00024906F08BF803B05DF804FBE9040000B2
:100A8C0010B500200EF08EF9044601200EF08AF904
:100A9C00034A81B2E0B2BDE8104006F088B800BF4E
:100AAC00E904000008B500200EF07CF9024980B280
:100ABC00BDE8084006F0EFB8E904000008B50020D6
:100ACC0001460EF0DBF90249BDE8084006F088B893
:100ADC00E904000008B500200EF064F9024980B268
:100AEC00BDE8084006F0ADB8E904000008B50020E8
:100AFC000EF058F9024980B2BDE8084006F0B6B8CD
:100B0C00E904000010B500200EF04CF9C0B205F05D
:100B1C00C1FE0449044A0346BDE8104002200DF012
:100B2C00E6BC00BF6ABF030012ED030005F090BEE7
:100B3C0010B5054805F0C0FE0449054A0346BDE85A
:100B4C00104002200DF0D3BCE90400006ABF030082
:100B5C005FC1030010B500200EF024F905F06AFE09
:100B6C000349044A0346BDE8104002200DF0BFBC07
:100B7C006ABF030064C1030002F092B910B58EB0D5
:100B8C00002006A902F008FA20B902201549164ADD
:100B9C00164B08E0012002A90EF0E7F930B9114913
:100BAC00114A134B02200DF0A2FC19E002A90DF121
:100BBC00060206A802F0C4F880F0010304460D49B1
:100BCC000D4A0220DBB20DF07FFC02202CB10B4948
:100BDC00BDF806200DF08BFC02E009490DF087FCF6
:100BEC000EB010BD54BF03005BBF03006BC103000C
:100BFC005FBF03006ABF030077C103007DC1030020
:100C0C007FCF030007B500200EF0CCF8B0FA80F0CF
:100C1C0040098DF8040001200EF0C4F8431E584220
:100C2C0058418DF80500144902200DF060FC02209B
:100C3C0012490DF049FC9DF804301BB902201049F3
:100C4C000DF042FC02200F490DF051FC02200E4920
:100C5C000DF03AFC9DF804301BB902200B490DF045
:100C6C0033FC02200A490DF042FC01A8094902F0AC
:100C7C0065F803B05DF804FB7FCF03008AC1030065
:100C8C00BCC10300DCC10300E6C10300F8C10300D2
:100C9C0018C203008D05000010B500200EF082F87C
:100CAC0080B202F0DFF880F001030449044A02200C
:100CBC00DBB2BDE810400DF01ABC00BF6ABF0300E8
:100CCC0052C1030010B500200EF06CF8041C18BFC4
:100CDC000124204600F098F9054B064A0649002CE1
:100CEC0008BF1A460220BDE810400DF000BC00BF42
:100CFC0051C2030049C203005AC20300054B064906
:100D0C0000221A704FF6FF730B8004494A85044A7F
:100D1C00137070474E2D00207C260020142D0020CF
:100D2C007826002090F838308BB1591E00EBC303A5
:100D3C00DA682AB100EBC100036901330361704723
:100D4C009A68013A9A6012B980F83810EAE770474D
:100D5C00436810B5E3B182689A4219D990F83820EB
:100D6C00C2B100EBC204A168B1F1FF3F08D1197800
:100D7C00FF290FD1013A013380F83820436007E096
:100D8C0019B9013A80F8382002E0481EA06001E051
:100D9C00002010BD012010BDF8B544681F4600238B
:100DAC000646154601F01F01136044B307B9013420
:100DBC001F2903D14FF0FF332B6018E0172901D8FE
:100DCC00296014E0182903D123782B6001340EE03C
:100DDC00192906D12378627802EB03222A600234A7
:100DEC0005E02146002016F02BFD0434286007B1E5
:100DFC007460B06884428CBF00200120F8BD20468E
:100E0C00F8BD37B5054640681346002840D0AC689D
:100E1C0084423CD9172A05D811438DF800100DF1E6
:100E2C00010424E0FF2A08D841F018018DF80010C5
:100E3C008DF801200DF1020419E0B2F5803F0BD2C0
:100E4C0041F01901120A8DF800108DF801208DF86F
:100E5C0002300DF103040AE041F01A018DF8001084
:100E6C0000200DF1010116F0CBFC0DF105046946D3
:100E7C00641A6868AA68E4B203199A4207D3224636
:100E8C0009F0C8F96B6823446B60204600E0002031
:100E9C0003B030BDF8B517461A4606461C46FFF798
:100EAC00B0FF054660B17068B26803199A4207D961
:100EBC003946224609F0AEF9736823447360254421
:100ECC002846F8BD43682DE9F34104460F46154604
:100EDC00002B41D082689A423ED95A1C42601E783F
:100EEC00002301930B780C2B01D9062084E0444A93
:100EFC0012F8038053B906F10C02D2B2012AF4D8CD
:100F0C00A6F1F5035E425E412E7055E0314601AA12
:100F1C000123FFF741FFF8B106F0E006464504D087
:100F2C003B78012BE1D1202EDFD108F0DF08B8F19E
:100F3C00400F05D16268A3689B1A019A93420BD3A8
:100F4C003B78013B0B2B07D8DFE803F01208222972
:100F5C00064222533B533B5301204DE07A782949FA
:100F6C00019B501E51F820101940994243D10BE0BF
:100F7C007A782449019B501E51F8201003EA510144
:100F8C00994238D106B1C943284606F0C5FA13E098
:100F9C00019BFE2B2FD862686A602B600AE0019AD5
:100FAC007B789A420AD1284692B2616809F032F9EC
:100FBC006268019B1344636000201DE01BD2052076
:100FCC001AE0019AFE2A16D8284600F8012BEBE706
:100FDC00019A7B78511C99420DD8284692B26168CF
:100FEC0009F018F9019B0020E8546268134463600F
:100FFC0002E0022000E0042002B0BDE8F08100BF56
:10100C0074C2030064C20300014B1870704700BF28
:10101C008826002010B50A4600210446FFF7F1FE91
:10102C0018B12046FFF77EFE012010BD70B51C469E
:10103C00436805461646002B57D082689A4254D90D
:10104C000B2952D8DFE801F0061811262935353D59
:10105C00512E5142934248D25A1C6A602278002A7F
:10106C0014BFF522F4221A703AE02046314606F0FD
:10107C0025FA024628460BE02046314606F034FAA3
:10108C00021E284604DA2021D243FFF7BAFE26E0DE
:10109C000021FAE72846402115E028464021224647
:1010AC0033461AE0204606F049FA402183B228461E
:1010BC0012E020463AF0E4F9602183B22246284639
:1010CC000BE0284660216268238806E0204606F083
:1010DC0035FA602183B22846621CFFF7DBFE20B193
:1010EC002846FFF71FFE012070BD002070BD70B5B3
:1010FC0004460E46154600213C22354409F011F9F0
:10110C0026606660A56070BD05C8101A70474368FC
:10111C0010B5CBB184689C4216D990F83820042ABB
:10112C0012D8E41A012C0FDD0132D2B280F838202B
:10113C0000EBC20200249460D36041F01F015A1CE2
:10114C0042601970012010BD002010BD10B504467E
:10115C00FFF7CDFF2046A021BDE81040FFF7D7BF19
:10116C00F8B505464068002850D0AB6883424CD98E
:10117C001B1A002B49DD264A1278002A37D095F825
:10118C003820002A37D005EBC202D4689CB32678ED
:10119C00976806F0E006A02E08BF7F08172F02D82C
:1011AC003E43267027E0FF2F0ED8001B421C611C0B
:1011BC00A01C92B209F02EF86B6846F018060133A9
:1011CC006B602670677016E0012B1ED0001B421C52
:1011DC00611CE01C92B209F01DF86B6802336B6065
:1011EC0046F019063B0A26706370A77003E0431C97
:1011FC006B60FF23037095F83830013B284685F867
:10120C003830FFF78FFD0120F8BD0020F8BD00BF7E
:10121C00882600202DE9F043446889B005469146A4
:10122C00A4B38368A34230D9084604A906F017F981
:10123C00044658B32846A021FFF769FF00269DF805
:10124C0016301FFA86F843451BD904A801A906F0ED
:10125C001EF9BDF80670039B4F4428461BB9414646
:10126C00FFF7D8FE03E005210022FFF7DFFE28463A
:10127C009DF804109DF805203B46FFF7D7FE01367C
:10128C00DDE72846FFF76CFF00E00024204609B09C
:10129C00BDE8F083F0B5074691B00E461C461546E6
:1012AC0001A839463246FFF722FF01A829462246FB
:1012BC00FFF7B0FF0198029B181A80B211B0F0BD75
:1012CC0070B5064615461C46FFF7A4FE28B13046FD
:1012DC0029462246049BFFF7A9FE00F0010070BDD1
:1012EC0010B50446FFF703FF20468021BDE81040EF
:1012FC00FFF70DBF70B504460E46154600213C2283
:10130C00354409F00EF826606660A56070BD436830
:10131C0073B504460E460BB900202BE082689A4246
:10132C00FAD9FFF715FD0028F6D094F83830052BC4
:10133C00F2D063685A1C62601B7803F0E005B5427A
:10134C00EAD102AA002142F8041D204619460123C5
:10135C00FFF722FD0028DFD0019A94F83830511C99
:10136C0002D0A02D08BF5200991C013344F8312043
:10137C0084F8383002B070BDF0B585B004460F4625
:10138C0016461D46FFF7E4FC10B9012323730CE04D
:10139C00204601A92A468DF804708DF80560FFF7E8
:1013AC0091FD2073B0FA80F0400905B0F0BD4368A0
:1013BC0010B50A460BB9FF2010BD81689942FAD9C5
:1013CC001C7890F838304BB1013350F83330591C3D
:1013DC0002D1FF2C02D1EEE7002BECD02AB904F09D
:1013EC00E000E02808BF204610BD21460023FFF78F
:1013FC00D3FC0028DFD0F2E72DE9F041436892B02E
:10140C000646002B6DD082689A426AD9FFF7A0FC81
:10141C000746002865D00024012573685A1C7260A9
:10142C00681C197809D0013D07D134B1013CE4B2F4
:10143C0012AA02EB840252F8405C01F0E008B8F109
:10144C00E00F1AD1F83907294DD8DFE801F004066E
:10145C00080A4C4C4C0C02332DE003332BE00533C3
:10146C0029E0093327E0691C3DD1013CE4B212AB01
:10147C0003EB840353F8405C35E012AA002342F8D6
:10148C00443D30460123FFF787FC50B3B8F1800F81
:10149C0018D006D8B8F1400F0AD0B8F1600F07D0B9
:1014AC0021E0B8F1A00F08D0B8F1C00F15D01AE0A8
:1014BC007268019B1344736015E0019B5A1C1CBF9E
:1014CC005B0001930F2C0CD812AB03EB840301349B
:1014DC0043F8405CE4B2019D05E06B1C9DD00135E6
:1014EC0001E0002701E0002D97D1384612B0BDE88D
:1014FC00F0812DE9F0478CB00546084608A99046C6
:10150C0005F0ADFF00285BD06B685A1C6A60197837
:10151C0001F0E003A02B53D10CAA002642F8286D51
:10152C0028460123FFF738FC002849D008A805F00D
:10153C0090FF34469DF82630B7B2BB420DD908A8AF
:10154C0005A905F0A4FF9DF8183023B11F2F9EBFED
:10155C000123BB401C430136ECE74FF0000938E097
:10156C000023ADF806302846002F43D102210A464D
:10157C000DF10603FFF700FF08A805F06AFF4FF016
:10158C00000A9DF826301FFA8AF6B3420BD908A838
:10159C0005A905F07CFF9FBB079B002B39D1BDF83B
:1015AC000630B34235D19DF82630B3420CD0BDF88D
:1015BC001620284605A94244FFF784FC287358B32B
:1015CC00002037E0FFF718FF2846FFF715FF09F159
:1015DC000109029A1FFA89F3934228D22846002166
:1015EC00FFF7E5FEFF280746BAD10298431C584284
:1015FC0058411FE0602FE5D10621082203ABB9E763
:10160C00602F06D1079921B103A839F027FF0028D4
:10161C00C9D00AF1010AB4E79DF81830002BD6D0D6
:10162C001F2ED4D80123B34024EA0304CFE7B4FA25
:10163C0084F040090CB0BDE8F087F0B5074691B0D6
:10164C000E4601A81546394632461C46FFF752FE97
:10165C00029848B1039B834205D901A8294622462A
:10166C00FFF747FF00E0002011B0F0BD436810B554
:10167C0033B184689C4203D9BDE81040FFF739BFF1
:10168C00002010BD8B69184730B50022D3B28B42B5
:10169C0002F1010203D2C45CE443C454F6E7002413
:1016AC00E3B28B420CD2C25CFF2A00EB030504F1BF
:1016BC00010402D001322A7030BD0022C254EFE77F
:1016CC0030BD000011F4E06F38B505460C4603D070
:1016DC004B420B40994204D00E484FF4B27108F0C3
:1016EC007DFBE9880C4212D00B4BEA6803EB8202BB
:1016FC004FF48073A34206D20B424FEA430318BF48
:10170C0004329BB2F6E71068044B184438BD044809
:10171C0038BD00BF89C20300A4F40300B0F203007B
:10172C0081C203002DE9F04391B09846199F3B8D7F
:10173C001C2B0646894604D02A4840F2563108F044
:10174C004DFB7C6A6569A369003518BF0125003320
:10175C0018BF0123AB4204D1224840F25A3108F0A1
:10176C003DFB3046394602F01BFC032E84F80090FA
:10177C0028D101AF276138464146BDF86020FFF7FC
:10178C00B9FD63884BB9184A184B3046002D14BF6D
:10179C001D4615462146A84720E03846A021FFF7F4
:1017AC00B6FD78B1384602210122231DFFF7E4FD76
:1017BC00A0B10D4A0D4B0320002D08BF1346214646
:1017CC009847EFE735B1002265693046214613464C
:1017DC00A84703E0A36930462146984711B0BDE8FD
:1017EC00F08300BF89C20300911600007D19000030
:1017FC002DE9F3411F46CB885B070C46164615D5E1
:10180C0000250F4B1B689D4216D20E4B216813F816
:10181C003580404601F022FF30B1A2880097404647
:10182C00216833460EF09FFC0135EAE78A88009761
:10183C00096833460EF097FC02B0BDE8F08100BF9A
:10184C00A0F40300C0F203002DE9F0471F46D38833
:10185C00089E03F003085B0705468946144604D12D
:10186C00164840F2BD3108F0B9FAB8F1010F13D0A7
:10187C00B8F1030F19D1E2882069A36812F0040FA4
:10188C000CBF2946002100FB01350D483946284480
:10189C00B2B208F0BFFC0DE0A28808964846216859
:1018AC003B46BDE8F0470EF001BD044840F2CD3197
:1018BC0008F094FA0020BDE8F08700BF89C203004D
:1018CC00892600202DE9F743134C054604F5407991
:1018DC002846216801F08AFEFF28804616D0E3884E
:1018EC005B0713D04FF480712046FFF7EBFE26699F
:1018FC0000960746294622463B464046FFF7A4FF82
:10190C00284621463A463346FFF772FF18344C45B9
:10191C00DED103B0BDE8F08330F503002DE9F041D2
:10192C00114D06460F469046002455F8040C3146DE
:10193C0005F048FB002814DC0ED12B88BB420BD1E0
:10194C00B8F1000F05D0094B182000FB0430BDE89E
:10195C00F0816B885B07F6D10134202C05F118055A
:10196C00E3D10020BDE8F08134F5030030F503002D
:10197C00F0B5064685B00C460869A021FFF7C7FCF8
:10198C00D8B900226569304621461346A84705B0F0
:10199C00F0BDA189A0680122FFF7C0FF0546A02178
:1019AC002069A5B9FFF7B3FC2069FFF725FD206975
:1019BC00FFF722FD2069FFF71FFD022120690A466F
:1019CC0004F10C03FFF7D8FC0028E2D1D9E7FFF7AC
:1019DC009EFC0028EED020690621022201ABFFF705
:1019EC00CBFC0028E6D0287D276905F0C2FD2A8AA9
:1019FC00014602AB3846FFF7BFFC0028DAD09DF851
:101A0C0004306769762B14BF9DF808300023A3734C
:101A1C003046214602AA2B69B847CBE708B50346E6
:101A2C0008461A7D072A02D105F08DFD08BD082A4B
:101A3C0002D105F098FD08BD186908BDF7B504463C
:101A4C0016461F460D4609B986202EE0CB885B074B
:101A5C00FAD0096801F0CAFDFF28F5D0EB8803F035
:101A6C000302012A07D1AA88009720462968334629
:101A7C000EF01AFC19E013F0040FAA682C690CBFC5
:101A8C000346002304FB0320094C0444214628464A
:101A9C00FFF7C4FF8742024606D33046214692B276
:101AAC0008F0B8FB002000E0892003B0F0BD00BFB7
:101ABC008926002070B506460846114600221D46B0
:101ACC00049CFFF72BFF2A46014623463046BDE80F
:101ADC007040FFF7B3BFF7B507461D461446B2B1C9
:101AEC00084611461A462369FFF7A8FF58B9207D0E
:101AFC00A68805F03EFD238A0095024631463846FD
:101B0C00FFF7DEFB00E0002000F0010000E0012008
:101B1C0003B0F0BD2DE9F043164685B00446336999
:101B2C000846114602AAFFF789FF8DF8030048B951
:101B3C007623307D8DF8043005F01BFD02AD804618
:101B4C00376907E073238DF8043001274FF0020842
:101B5C000DF1030502214FF0000920460A46331D02
:101B6C008DF80590FFF762FA08B9002018E02046BE
:101B7C00A021FFF7CCFA0028F7D0204605214A46D1
:101B8C0001ABFFF753FA0028EFD020464146BAB21A
:101B9C002B46FFF74BFA0028E7D02046FFF7E0FA78
:101BAC0000F0010005B0BDE8F08300002DE9F04F16
:101BBC0090F8C460B6FA86F67609804685B00F4672
:101BCC0008460EB1802100E0A021424CFFF79FFA9D
:101BDC004FF0000904F5407A4D4654F8040C08F116
:101BEC007A0105F0EFF90028A4F1040B06DD384664
:101BFC00FFF7B6FA80F00100C0B268E062D16388EA
:101C0C005B075FD0B4F800C04346024698F8C41096
:101C1C008A423AD293F88810032926D8DFE801F0DB
:101C2C0002071C3FB3F88A1061452BD137E0B3F89B
:101C3C008A10614526D8B3F88C10A94205D929FA27
:101C4C0002F010F0010F08BF0D460121914049EA46
:101C5C0001091FFA89F915E0B3F88A10614511D80A
:101C6C00B3F88C1061450DD319E01B48039340F277
:101C7C00A3210292CDF804C008F0B0F8039B029A9D
:101C8C00DDF804C001320633C0E719B12B1C18BFB4
:101C9C00012300E001230DB1013DADB293B136B18A
:101CAC00022138460A462346FFF7C0F906E0D8F869
:101CBC006430384619785A46FFF72CFF80F0010043
:101CCC00C0B218B91834544587D190E7012005B03B
:101CDC00BDE8F08F34F5030089C2030038B5054622
:101CEC000C460846A021FFF712FA08B9012038BDAE
:101CFC006B6EEA6E19782046FFF70CFF0028F5D0C2
:101D0C002046FFF72DFA80F00100C0B238BD00006C
:101D1C002DE9F04F8846B1B0064600210DF174094B
:101D2C0009EB01044FF6FF70608021F809000431C3
:101D3C004C29F3D100204946984217D04D8832F8EF
:101D4C0010400135AC4201D14C800DE0B1F800E0FF
:101D5C004FF6FF75AE4505D00431C9EB0105B5F55D
:101D6C009A7F7ED24C800C800130E5E7C9EB0104F0
:101D7C00A410631C0DF1340B059361225B4606F134
:101D8C003400414603F031FC3F220BEB00030BF80F
:101D9C00002066225A703D22DC1C9A700027059B9D
:101DAC009F4206A930D22FB12C228DF818200DF1AC
:101DBC00190A00E08A4639F8275002215246284673
:101DCC0003F01AFB09EB87010AEB000249888D42EC
:101DDC0009D0551C2D220AF8002008462A4602215B
:101DEC0003F00AFB2A1806A9551A6A1C2244CBEBED
:101DFC000202402A35D82046AAB22C4408F00AFA2E
:101E0C00002222700137CAE796F836200023012AF7
:101E1C008DF8183008BFB38EADF81A3012B996F899
:101E2C00343000E0FF233A9A8DF81C304FF6FF73E4
:101E3C00ADF824308DF8263000239A420B920B4AD1
:101E4C00029108BF1A4601921C220392009330465D
:101E5C0001215A46CDF820800A930C9301F084FF9F
:101E6C0000E0022031B0BDE8F08F00BF3117000058
:101E7C002DE9F043C3B0144605460F4613A822A91A
:101E8C0080229946DDF82881FFF760F9043400269A
:101E9C004E4517D0384634F8041C0122FFF73EFD9E
:101EAC0000284CD0027D8188038AD01F01284AD893
:101EBC002046009013A8FFF703FA0C34002840D0FA
:101ECC000136E5E713A8FFF74BF961220BAB05F1DF
:101EDC003400394603F089FB95F836200023012A9B
:101EEC008DF8103008BFAB8EADF8123012B995F8E2
:101EFC00343000E0FF238DF814304FF6FF73ADF84B
:101F0C001C308DF81E3013A80023089309930697F4
:101F1C00CDF82880FFF7F8F80D4BB8F1000F08BF8B
:101F2C00002380B28DE8090004AB02931C230393B9
:101F3C00284602210BAA22AB01F016FF05E0022075
:101F4C0003E0012001E02068B3E743B0BDE8F08373
:101F5C00311700002DE9F0470646144698B00846A4
:101F6C0039F08EFA06EB840306EB4404DF6BB4F80D
:101F7C00543057FA80F500241F44BD4217D228462E
:101F8C002C217A1B39F0C6F930B1A84200F08880B8
:101F9C007B1E984201D183E0384604AB43F82450B1
:101FAC000EAB451B43F824500134451CE5E7002CCF
:101FBC0078D0002796F8C4506B1C86F8C4300EAB52
:101FCC0053F82790B9F1010F04AB0BD153F827202C
:101FDC0012782A2A06D1062303FB0565032385F80C
:101FEC00883058E053F827A02D2150464A4639F046
:101FFC0091F9804630B950462B214A4639F08AF97E
:10200C008046B0B3CAEB08014B1E032B31D85046A7
:10201C006A4603F07FFA60B30AEB0901C8EB0101D1
:10202C008B1E032B25D808F10100013902AA03F0FD
:10203C0071FAF0B198F80030009A2D2B4FF006038E
:10204C0003FB05650CD1022385F88830BDF80830F8
:10205C00A5F88A2092B29A42A5F88C301BD31FE0C7
:10206C000121A5F88A20029A85F88810A5F88C2001
:10207C0011E0B9F1040F13D8504649466A4603F0F3
:10208C0049FA68B1062303FB0565002385F88830FF
:10209C00009BA5F88A300137A7428BD1012002E0C2
:1020AC00002000E0204618B0BDE8F08700EB4202AB
:1020BC00B2F854305A1E5342534180F8C53018467A
:1020CC007047000010B50446B0B001A810A98022DA
:1020DC00FFF70DF82378012B02D0022B10D02BE048
:1020EC002046194901AA002301F0D0FA20B1012899
:1020FC001BD005F063F824E001A805F04DF820E0B2
:10210C002046124901AA002301F0C0FA01280CD084
:10211C0005D3FF280CD101A805F059F811E00021D6
:10212C000A46442004F0AAFF0BE005F01DF908E074
:10213C0001A805F01BF804E0054840F2B44107F093
:10214C004DFE30B010BD00BFB91B00001B240000B9
:10215C0089C2030010B50446B0B001A810A98022B2
:10216C00FEF7C5FF2378012B02D0032B0BD021E007
:10217C002046144901AA002301F088FA90B901A85D
:10218C0005F00AF81BE01049204601AA002301F0D3
:10219C007DFA014610B1012804D006E0442004F079
:1021AC00ADFF0CE005F0E0F809E001A9802004F097
:1021BC003FFF04E0054840F2E64107F00FFE30B067
:1021CC0010BD00BFE91C00001B24000089C20300E5
:1021DC002DE9F04107460E46084619461546984625
:1021EC00FFF752FA00210A4641450AD0785C745C2C
:1021FC0010442044FF2868548CBF01220022013176
:10220C00F2E76B1813F8010CC40902D02846FFF74B
:10221C003BFA2046BDE8F0812DE9F0419DF818808D
:10222C00B8F1020F06460D461C4603D9134840F27E
:10223C001A5104E08B4206D3104840F21E51BDE8FF
:10224C00F04107F0CBBD9FB211463A4607F0E2FFD2
:10225C00601EC0B2B8F1010F08BF315CA5EB0702DC
:10226C0008BF41F3C01100F1010030440CBFC9B2EA
:10227C00002192B2BDE8F04108F053B889C20300C6
:10228C002DE9F0418CB08646129D2C699C4238BFDA
:10229C001C468C4238BF0C46082C0F4690461E46F6
:1022AC0017D801342B7D0093724603A821463B4678
:1022BC00FFF7B2FF2B7D009306A82146424633461A
:1022CC00FFF7AAFF03A806A909AA2346FFF780FF78
:1022DC0000E000200CB0BDE8F08100002DE9F347D0
:1022EC008046164699469DF828500C4609B986201A
:1022FC0072E0CB885907FAD0216801F077F9FF28F2
:10230C008246F4D020463146FFF788FB236983428E
:10231C00074660D309F1FF33072B01D987205BE017
:10232C00E3881A0502D4002D53D01EE0237D022B26
:10233C00F9D84FF400712046FFF7C4F90094024617
:10234C00494630462369FFF79BFF0028E6D14FF43E
:10235C0080612046FFF7B6F90094216932464B465E
:10236C00FFF78EFF0028D9D1DDE7E3885B0718D58E
:10237C0000251B4B1B689D421CD21A4B216813F87D
:10238C003590484601F06AF948B1A2880097484652
:10239C00216833460DF0E5FE08B901201CE001353B
:1023AC00E7E7A28800974046216833460DF0D9FE36
:1023BC000028F2D000975046414622463346FFF79C
:1023CC0043FA054628B94046214632463B46FFF7BC
:1023DC000FFA284600E0892002B0BDE8F08700BF64
:1023EC00A0F40300C0F2030070B50646084611467F
:1023FC0000221D46049CFFF791FA01230493014629
:10240C002A4630462346BDE87040FFF767BF2DE9EA
:10241C00F04F90F8C53097B0002B80468A4608469E
:10242C004FF0A00114BF4FF0020B4FF0010BFEF761
:10243C006EFE00273E46BBF1020F07A8D8F8081025
:10244C00B8F80C200ABFB7FA87F94FF000094FEA29
:10245C005919FEF74FFF07A8A021FEF758FF0028D7
:10246C0060D00025022107A80A460DF11203FEF7E1
:10247C0083FF002857D0D8F86C40BDF81210862383
:10248C008DF811301CB1A3888B4231D109E0224662
:10249C0008F17A000393FFF741FA044608B9039B4D
:1024AC0003E0E3889B0607D4882307A88DF8113036
:1024BC00FEF7A2FFE0B945E0207D05F05AF8228A2C
:1024CC00014605AB07A8FEF757FF20B99DF8280079
:1024DC0004F0B2FF0AE0D8F86430187889F00103F0
:1024EC000093214605AA2369FFF7F8FE8DF8110029
:1024FC009DF811409CB10DF111030093BDF8121021
:10250C00504602220123FEF7DBFED8B1B9F1000FD1
:10251C0006D09DF81130002B18BF012500E0344681
:10252C0026469FE705460137FFB25F4501D0002DD7
:10253C0081D05046FEF714FE20B1002D0CBF304662
:10254C00FF2000E0012017B0BDE8F08F30B5322439
:10255C008FB00546224601A8002138F005FF01A8DE
:10256C000E212A46234608F0F9F8BDF82E00B0FAE1
:10257C0080F040090FB030BD10B504468EB00A464D
:10258C00322301A80E2108F0E9F822789DF80430D6
:10259C009A4251D1A01C0DF1060104F026FD002831
:1025AC004AD0227A9DF80C309A4245D194F82920D1
:1025BC009DF82D3093423FD13BB1012B11D104F149
:1025CC0009000DF10D01202204E004F109000DF1C8
:1025DC000D01102207F0ACFEB0FA80F0400918B9DA
:1025EC002AE01748452117E094F82E209DF8323048
:1025FC00934221D12BB1012B0CD1A38DBDF83020EE
:10260C0003E094F82C309DF830209A1A5342534131
:10261C002BB911E00A485B2107F0E0FB0CE0628D5E
:10262C00BDF82E309A4207D19DF8340094F8303022
:10263C001B1A5842584100E000200EB010BD00BFDC
:10264C0018C303002DE9F041079D2B8D482B06463E
:10265C000F4604D00C484FF40D7107F0BFFB6C6AA9
:10266C00636C23B9084840F2362107F0B7FB3046BB
:10267C00294601F095FC2246636C02F8107B30462B
:10268C002146BDE8F041184718C3030038B504468D
:10269C0048B1851C2946007800F0E0FFB8B1237AD8
:1026AC00012B06D801E0012011E094F82930012B10
:1026BC0001D900200BE094F82E30012BF9D8608D55
:1026CC0028B1207894F83020294602F067FC00F0FD
:1026DC00010038BD30B50546A1B079220C4601A8E1
:1026EC00002138F041FEA868A9890B4A01ABFEF71E
:1026FC00A4FF78B19DF8043084F830300DF105005A
:10270C002146002203F0AEF810B12046FFF7BEFFC1
:10271C0000F0010021B030BDA8C30300072838B574
:10272C0004460D4601D9002038BDFFF70FFF0028E5
:10273C00F9D12DB128460E212246322308F00EF88D
:10274C00012038BDF0B505468FB00C4661B10026AE
:10275C00F7B220463946FFF70FFF10B1AF4207D151
:10276C001CE00136082EF3D1FF2D17D0072D01D90F
:10277C00002014E02046FFF789FF0028F8D001AEB6
:10278C0000213222304638F0EFFD0E202946002C75
:10279C0014BF22463246322308F018F801200FB03D
:1027AC00F0BDF8B5054608B30027FF26FCB2284655
:1027BC002146FFF7E1FE68B9FF2E05D12046FFF751
:1027CC00C5FE002818BF26460137082FEED1072E6C
:1027DC0034460BD82846FFF759FF38B10E20214656
:1027EC002A46322307F0F2FF2046F8BDFF20F8BD41
:1027FC000021FFF7A7BF38B500242546E0B2FFF74C
:10280C00F7FF0134002818BF0125082CF6D1284603
:10281C0038BD08B9FFF7EFBF704738B590F82E30C8
:10282C0081F83630838D8B86037A5A1E534253417E
:10283C000B8090F8292004460D4652B1012A12D182
:10284C00084643F0040320F8123B04F1090120224E
:10285C0007E0084643F0020320F8023B04F10901AB
:10286C00102207F0D7FC638D6B8638BD2DE9F04F35
:10287C00D3B09A469DF87071BB1E022B06460C46CF
:10288C00904605AD05D93D4840F2ED1107F0A6FA8A
:10289C0001E0042F1DD07922002113A838F064FD2B
:1028AC0094F830308DF84C3020462946FFF7B5FFB0
:1028BC000DF14D01284602F065FF94F830308DF88B
:1028CC004C3032A880212E4A13ABFEF7E3FC814634
:1028DC0001E04FF00009B8F1FF0F06F1340004F1EC
:1028EC00020B05D1594662222B4602F07EFE0AE00D
:1028FC00002301930123CDF80080029303955946E0
:10290C00622202F092FE96F836200023012A8DF8FE
:10291C004C3008BFB38EADF84E3012B996F8343047
:10292C0000E0FF238DF85030CDF854B08DF858806E
:10293C00234617AA04F1300E18685968144603C4CC
:10294C00083373452246F7D11B882380BAF1000F58
:10295C000C4BCDF8009008BF0023019313AB0293EE
:10296C0048230393304639462A4632ABCDF890A023
:10297C0001F0FAF953B0BDE8F08F00BF18C30300A3
:10298C00A8C303005126000007B51346022200928B
:10299C00FF22FFF76BFF03B05DF804FB13B50324B4
:1029AC000094FFF763FF02B010BDF0B50C4691B078
:1029BC000746164603A8002132221D4638F0D4FCE7
:1029CC002368CDF80E30A388ADF8123004230093A1
:1029DC00384603A932462B46FFF748FF11B0F0BD2D
:1029EC0010B5DAB0322204460021684638F0BCFC3F
:1029FC0069462046FFF792FE792200211BA838F089
:102A0C00B3FC9DF830308DF86C3068460DA9FFF79B
:102A1C0004FF0DF16D010DA802F0B4FE80213AA85F
:102A2C00064A1BABFEF736FC014618B13AA804F077
:102A3C00A1FB01E004F098FC5AB010BDA8C3030040
:102A4C0038B500242546E0B2FFF780FD00B901350A
:102A5C000134082CF7D1284638BD30B58FB00D465F
:102A6C000446002101A8322238F07EFC284601A938
:102A7C00FFF754FE68B1636E1A789DF804309A42E1
:102A8C0006D104F17A000DF1060104F0AEFA00E073
:102A9C00002000F001000FB030BD000070B5B0F8A0
:102AAC006860B4B0044616B104F088FB65E00378A6
:102ABC00012B23D105A814A98022FEF711FC8DF857
:102ACC0010609DF81010072910D82046FFF7C5FF9D
:102ADC0030B105A80221012204ABFEF7A7FA58B3C6
:102AEC009DF8103001338DF81030EAE705A8FEF799
:102AFC0037FB08B305A804F04FFB3EE0022B37D19F
:102B0C00314614A8322238F02FFC636E25461B7810
:102B1C008DF8503055F87A3FCDF852302046AB88BE
:102B2C00ADF8563014A9FFF7D5FDF0B114A8FFF796
:102B3C0038FEFF28024602D104F016FC1DE0636E3D
:102B4C00049634A81B7800F8C03DD2B20023CDE91E
:102B5C00002305AC0123029303942946622202F060
:102B6C0064FD204604F0E8FA07E004F024FB04E0DE
:102B7C00034840F2512107F031F934B070BD00BF69
:102B8C0018C3030010B5B0F868108EB0044611B12C
:102B9C0004F014FB35E00378012B04D190F870009D
:102BAC00FFF71EFF2DE0032B1DD101A8322238F0B8
:102BBC00DBFB94F8700001A9FFF7B0FD80B1204653
:102BCC0001A9FFF787FD40B194F8700001A9FFF748
:102BDC00B9FD10B104F0C6FA13E004F0ECFA10E001
:102BEC0004F0C2FB0DE0042B06D190F87000FFF747
:102BFC00FFFD04F0B3FA04E0034840F2652107F04E
:102C0C00EDF80EB010BD00BF18C3030000880B8E8A
:102C1C00C31A5842584170470B8E0288934204D114
:102C2C004FF6FF7303800120704703D981889942C6
:102C3C0088BF8380934203D242889A4238BF438034
:102C4C000020704770B505460E460A48002113F067
:102C5C006AFE044658B1204613F0A0F801462846F7
:102C6C00B04720B92146034813F087FEF1E7204610
:102C7C0070BD00BF962D002008B5202207F058FB30
:102C8C00B0FA80F0400908BD2DE9F341144B154D05
:102C9C001A88ADF80620002406460F461C802C60CE
:102CAC000DF1060013F03AFE0146A8B90DF106002D
:102CBC0013F07EFE804613F071F801463046B8479B
:102CCC00024608B10134EBE70548414613F031FEEA
:102CDC002B6801332B60E3E7204602B0BDE8F0819E
:102CEC00962D0020982D002010B5044601F12002ED
:102CFC0080232179006814F017FE23791B1A58429F
:102D0C00584110BD10B500210446084813F00BFEC5
:102D1C0084420AD021460548002213F06EFE21465B
:102D2C000248BDE8104013F01FBE10BD962D0020C8
:102D3C00014812F0E7BF00BF962D0020FFF782BFBD
:102D4C002DE9F04789468EB0354980461746FFF786
:102D5C0079FF044600283CD1324E3468072C03D945
:102D6C00FFF76EFE844231D201A8414620222E4C40
:102D7C0007F050FA102209A8494607F04BFA2288AE
:102D8C00A3889A4216D107F0C3FC274D208000235C
:102D9C004FF6FF7A284625496380A4F804A0FFF774
:102DAC0051FF23885345EED06A88AB889B1A632B5E
:102DBC00E9DD2A802388ADF834305A1C2280322178
:102DCC0001A8002213F0FFFB0146D8B9184B1C8850
:102DDC00A4B1204612F0E2FF41460546202207F03E
:102DEC0019FA05F120004946102207F013FA204683
:102DFC00FFF788FF27B12B8E3B8001E020460CE0CB
:102E0C0001200AE00A4813F0AFFD33680133336048
:102E1C00002FF5D0BDF83430EEE70EB0BDE8F087EA
:102E2C00852C0000982D0020B0260020252C0000B9
:102E3C00962D002038B50D460949FFF703FF0446CF
:102E4C0068B13DB112F0AAFF102200F12001284612
:102E5C0007F0E0F92046FFF755FF012038BD38BDDB
:102E6C00852C000007B502AB0A4923F8020D184661
:102E7C00FFF7E8FE014648B10022074813F0BDFDFC
:102E8C00064A1368013B13600120FFE703B05DF8AD
:102E9C0004FB00BF192C0000962D0020982D00205B
:102EAC00054A00231380054A1360054A138053809A
:102EBC004FF6FF7393807047962D0020982D0020BD
:102ECC00B026002008B9FFF7EBBF7047802907B583
:102EDC0007D800908DF8041068460449FFF7D4FE1B
:102EEC0000E0002003B05DF804FB00BFF52C0000EF
:102EFC0030B5D2B28DB01D460023CDE9002304AC11
:102F0C00012302930394632202F08FFB119A094967
:102F1C00234602200BF0D8FA2946BDF840200023A6
:102F2C0002200BF061FB022003490BF0E0FA0DB01C
:102F3C0030BD00BFC0C303007FCF030030B585B0E8
:102F4C00002303934B8B0C462BB1ADF80C300123B3
:102F5C008DF80E3002E00B7F8DF80C3001F02AF862
:102F6C000546207C2AF0D2FA2A460346084902205C
:102F7C000BF0AAFA238B0093064B019394F82420B0
:102F8C00216A636903A8FFF7B3FF05B030BD00BF2A
:102F9C00CAC30300DAC1030037B50D4602A90024E9
:102FAC0001F8014D40B20BF069FF014640B19DF8AC
:102FBC000720202A05D1284607F02CF9012001E032
:102FCC0000E0204603B030BD08B5FDF797FE024B7C
:102FDC000022C3F8B02008BD9C2D002030B5B1B044
:102FEC000021382202A838F0BFF902244FF0FF303C
:102FFC000021ADF808400BF041FF0378652B12D08F
:10300C00672B32D0622B40D100200BF0CBFE10A9E5
:10301C00C0B2FFF783FB20B110A802A9FFF7FDFB9C
:10302C0038E06C234AE000200BF0BCFEC0B210B1BB
:10303C0001280AD067E001200DF10A010BF095FF81
:10304C00002860D0ADF8084008E00DF11A01FFF738
:10305C00A3FF002857D00423ADF8083002200BF052
:10306C00A1FE00238DF83C000CE000200DF10A01BC
:10307C000BF07BFF002846D001200BF093FE0123C0
:10308C00ADF83C008DF83E3004E021486B2106F091
:10309C00A5FE3AE002A8FDF789FC702803460DD185
:1030AC001C49D1F8B0404CB18B681B4A002B01F184
:1030BC000C0102A808BF0021A0470346174A184973
:1030CC0002200BF001FA134BD3F8B020A2B19A688E
:1030DC001D681C792AB110A880210C33FEF7DAF890
:1030EC0000E010460F4B009001930FA82946224692
:1030FC0010ABFFF7FDFE03E002200B490BF0F7F9D4
:10310C00FFF762FF01E00223D8E731B030BD00BF0A
:10311C00D9C303009C2D0020492F00005FC1030080
:10312C006ABF0300DAC103007FCF03002DE9F04F23
:10313C00ABB0574C349E1F46814688461546FFF768
:10314C0043FFC4F8009084F80480A560C4F8B07004
:10315C003378002B00F08480284606A904F07FF910
:10316C0028B1013E4FF0000904F14C0A30E0022076
:10317C0048490BF0A9F973E006A804F082F918B1DC
:10318C004548B32106F02AFE06A803A904F07FF9EE
:10319C00BDF80EB033780BF108052544722B05F100
:1031AC0004082DD01BD9752B32D021D8732B52D1BA
:1031BC0038460BF029FE2871384BC3EB0808B8F1E0
:1031CC00400F03D93448E02106F008FE09F101094B
:1031DC0016F8013F5FFA89F7002BCDD140E0622B46
:1031EC0025D0712B10D02A2B35D12B48B82134E0A7
:1031FC00762B15D0772B2ED138460BF0D3FD14E05F
:10320C0038460BF001FE0EE038460BF0FDFD0CE0ED
:10321C0038460BF0C7FD1E4B9B448BF80C00CBE7DC
:10322C0038460BF0BFFDA880C6E76860C4E70AA962
:10323C004FFA89F00BF022FE9DF828206A600146B7
:10324C00C8F804A0504606F0E5FF9DF8283005F1BB
:10325C000C089A44B0E71048DC2106F0BFFDABE740
:10326C00A268266825792AB10AA880210B4BFEF7A3
:10327C0011F800E010460A4B0090019300203146F3
:10328C002A460AABFFF734FE2BB0BDE8F08F00BF27
:10329C009C2D002062C40300D9C30300A82D00207C
:1032AC007BC4030010B5436ED16A1B781377436F50
:1032BC0014461046DB68984794F8300080F0010003
:1032CC0010BDF0B50C468E6B496BA1B0074641B1F1
:1032DC006A46A06AFEF7CAF9002814BF6A460022A3
:1032EC0000E00A4638462146B04721B0F0BD000048
:1032FC002DE9F04391B09946199FBDF860803B8D44
:10330C003C2B05460E4603D02048972106F066FD5F
:10331C007C6AA36B1BB91D48992106F05FFD2846FA
:10332C00394600F03DFE032D2674C4F81490A4F821
:10333C00188022D17609022E1FD101AEA66230462A
:10334C0049464246FDF7D6FF638B23B928462146F2
:10335C00FFF7B7FF16E03046A021FDF7D8FF60B1AC
:10336C0030460221012204F11C03FEF705F848B196
:10337C0003202146FFF7A5FFF2E7A36B2846214661
:10338C000022984711B0BDE8F08300BF94C403003D
:10339C00F8B507460D4608468021FDF7B8FE114CDE
:1033AC000026114B1B689E4207D254F8040C07F1FF
:1033BC007A0103F007FE002806DD2846FDF7D0FE53
:1033CC0080F00100C0B2F8BD08D1284602210122CC
:1033DC002346FDF72BFE08B90120F8BD0136103449
:1033EC00DFE700BF34F80300DCF30300F8B5064652
:1033FC000F4600250B4B1B689D4208D22A010A4B35
:10340C003146D058D41803F0DDFD002801DD002032
:10341C00F8BD04D12379BB4201D12046F8BD01355A
:10342C00E8E700BFDCF3030030F803002DE9F04FB0
:10343C00BDB005468B469246DDF81891DDF820812B
:10344C001C4633B1B9F1000F03D12548412106F0D8
:10345C00C5FC0023019305AE012302935946632258
:10346C00CDF800A0039605F134000DAF02F0DDF8A5
:10347C003C223846002137F077FF95F83630012B87
:10348C000CBFAA8E0022ADF84E2013B995F834303B
:10349C0000E0FF238DF85030479BCDF854B08DF8E9
:1034AC0058A01A93CDF86C8034B11CA880214A46E0
:1034BC002346FDF7EFFE00E02046B8F1000F094B64
:1034CC0008BF00238DE889003C2303932846022182
:1034DC0032461CAB00F048FC3DB0BDE8F08F00BF9D
:1034EC0094C40300FD32000010B5134604460A468E
:1034FC0049B153B11946806AFDF78CFE84F830004F
:10350C0080F0010010BD084610BD184610BD00002B
:10351C0007B502AB044A03F8041D1946FFF7E4FF94
:10352C0003B05DF804FB00BF84C4030010B5B0B059
:10353C00044610A901A88022FDF7D9FD20460749B1
:10354C0001AA002300F0A2F818B901A803F024FE88
:10355C0001E003F009FF30B010BD00BF9D33000047
:10356C00F0B5436F9A68DDB005461CAF42B1806878
:10357C00A9893B46FEF761F810B903F01CFE31E057
:10358C000DAE30463CA98022FDF7B1FD2B691033FE
:10359C000FCB8DE80F002B788DF81030AB680593AE
:1035AC00AB89ADF81830B5F86830ADF81A30FF2398
:1035BC008DF81C306B6F0C491A6808921B798DF8CA
:1035CC00243001238DF83030284632466B460A965B
:1035DC000B9700F05BF818B9304603F0C7FD01E01B
:1035EC0003F0C2FE5DB0F0BDB13200002DE9F04138
:1035FC000025074688462C460F4B1B689D4217D268
:10360C000E4B13F83560BE4212D8B8F1000F04D13E
:10361C00B7420AD00134E4B205E03046414600F02E
:10362C001DF80028F4D10135E6E72046BDE8F0810D
:10363C00FF20BDE8F08100BFA0F40300C0F203003E
:10364C0008B50021FFF7D2FFFF281ABF024B03EB8E
:10365C00C000002008BD00BFC0F2030070B50E46CC
:10366C00FFF7EEFF054608B9002070BD00246B681B
:10367C0018590028F8D0314603F0A4FC0028F3DCDC
:10368C0004F10404F3D1012070BD00002DE9F14FC9
:10369C009946B0F8683007468846154633B9114646
:1036AC0043464A4601B0BDE8F04F18471046A021EA
:1036BC00FDF72DFD08B901202FE000268B24184BB7
:1036CC001B689E4223D2174BB7F8681013F836B01C
:1036DC00584603EBC60A00F041FAB0B1584607F160
:1036EC007A01FFF7BBFF80B1C7F864A0284602211E
:1036FC0001225346FDF79AFC0028DCD038462946B7
:10370C004A46C04701280446D5D00136D7E728469B
:10371C00FDF726FD0028CED0204601B0BDE8F08F85
:10372C00A0F40300C0F2030070B505460E46002459
:10373C000C4B1B689C4212D226B965B90A4B13F884
:10374C00340070BD084B314613F83400FFF786FF88
:10375C000028F2D101E0013DEDB20134E8E7FF2091
:10376C0070BD00BFA0F40300C0F2030010B5B0B0F0
:10377C0001A810A98022FDF7B3FD00240C4B1B6897
:10378C009C4201A80CD20B4B0221012203EBC40377
:10379C00FDF74CFC10B903F0E7FD06E00134EDE752
:1037AC00FDF7DEFC01A803F0F7FC30B010BD00BF44
:1037BC00A0F40300C0F2030030B5B3B0054612A963
:1037CC0003A88022FDF78CFD00246B6E5B681859F2
:1037DC0070B1694601F0A8FE03A806210B226B46C6
:1037EC00FDF724FC04340028EFD103F0BDFD05E007
:1037FC0003A8FDF7B5FC03A803F0CEFC33B030BD35
:10380C002DE9F04F93B004460E46174605A8322218
:10381C00002198461C9D37F0A7FD20460DF11D0395
:10382C0004F1100250F8041B43F8041B9042F9D128
:10383C0041F23363ADF83E30FF238DF840302C4617
:10384C00B146F31999453CD201AB484603A9049300
:10385C0003F0AEFDA8B39DF80C3004998DF8403000
:10386C000B78B3FA83F301305B0981440B700DF1D3
:10387C001600062206F0CEFC4FF0000A134B1B6814
:10388C009A45DED2124B13F83AB00DF11601584698
:10389C00FFF7E4FE90B1B8F1000F04D005A88DF845
:1038AC0014B0FEF77EFF4CB1204600215A46049B13
:1038BC0002F080FF0444204602F0B0FF0AF1010A36
:1038CC00DCE7601B13B0BDE8F08F00BFA0F4030071
:1038DC00C0F2030030B5ADF20C4D02AC0546002130
:1038EC0020464FF4806237F03FFD00942A8B6969C3
:1038FC0001232846FFF784FF282281B2204603F0DB
:10390C004FFC0DF20C4D30BD034B1B780BB1FFF788
:10391C00E1BF03F053BC00BFA84200200328BDF850
:10392C000020019907D10020009001F110001946E8
:10393C000123FFF765BF7047F0B5ADF24C4D04465F
:10394C0012AE00214FF48062304637F00DFD228B11
:10395C000096204661690023FFF752FF054680B1AF
:10396C0005AF00213422384637F0FEFCADB2064BD1
:10397C0001930095029720460221044A33462AF00F
:10398C0083F80DF24C4DF0BD2939000027C503001A
:10399C00024B1B780BB1FFF7CFBF7047A84200203A
:1039AC000148032103F0E6BB21C5030001480321B4
:1039BC0003F0E0BB24C5030030B5036910330546A2
:1039CC000FCB8FB001AC84E80F002B788DF814303E
:1039DC00AB680693AB89ADF81C30FF2300218DF842
:1039EC0020306B6FADF81E1009911A798DF82820D4
:1039FC000B910C918DF83410DB68204698470FB072
:103A0C0030BD000008B1012803D1034B03EB0010BB
:103A1C0070470020704700BF3CC503002DE9F04300
:103A2C00ADF25C4D05A80021102237F09DFC05A8D5
:103A3C0003F09EFC00283ED016AD284600214FF422
:103A4C00806237F091FC00262C461E4B1B689E4270
:103A5C0017D21D4B4FEAC60909EB0302984657686B
:103A6C00043F57F8043F53B12046002118F80920B1
:103A7C0002F0A0FE0444204602F0D0FEF1E701362D
:103A8C00E3E709AE002134223046641B37F06CFCAE
:103A9C00A4B2002300940193029605A802210B4ABC
:103AAC002B4629F0F1FF044638B909484EF660213F
:103ABC0013F0B4FA01E0012000E020460DF25C4D59
:103ACC00BDE8F083A0F40300C0F2030031C503008D
:103ADC00A8420020014B00221A707047A842002017
:103AEC00014B00221A707047A84200202DE9F743C1
:103AFC0006460F4690468B2400255FFA85F94A4608
:103B0C00042301A80F2106F029FEBDF80430C8EBF0
:103B1C000302534253419DF80620BA4204BF43F0BE
:103B2C000403DBB2022E02D03340B3420FD1FF2389
:103B3C008DF80630002404230F20494601AAADF865
:103B4C00044006F043FE06F00503052B02D00135B8
:103B5C00042DD2D1204603B0BDE8F0834FF6FF739D
:103B6C00994273B506460D461AD04B1E9BB24FF6C2
:103B7C00F672934201D9002013E00024042301A81B
:103B8C000F21E2B206F0EAFDBDF80430AB4203D1DE
:103B9C009DF80630B34203D00134042CEED1EAE791
:103BAC00012002B070BD000038B505460024074B5B
:103BBC001B689C4208D2064B294613F83400FFF7C9
:103BCC00CDFF10B90134F2E7002038BDA0F403009A
:103BDC00C0F203000220FF210022FFF787BF08B9C3
:103BEC00FFF7F8BF704770B50026B2B03446042317
:103BFC0012A80F21F2B206F0B1FDBDF848303BB36C
:103C0C000025A5421CD03DF81520934220D005F18B
:103C1C00010013D24000621B811E520092B2684414
:103C2C00694406F0F7FA32AB03EB45030134BDF8F7
:103C3C00482023F8C82CA5420AD101E00546E0E74C
:103C4C0032AB03EB4403BDF8482023F8C82C0134F5
:103C5C000136042ECBD132AB03EB44034FF6FF728B
:103C6C0023F8C82C03A812A98022FDF739FB0134D4
:103C7C000025A54203A80BD202210A460DEB4503F1
:103C8C00FDF7D4F910B903F06FFB06E00135F0E74E
:103C9C00FDF766FA03A803F07FFA32B070BD00009E
:103CAC00F0B5B1B0064610A901A88022FDF718FBAB
:103CBC0000242546134B1B689C4216D2124AB6F8B8
:103CCC00681012F8340002EBC407FFF747FF50B13D
:103CDC0001A8022101223B46FDF7A8F910B903F017
:103CEC0043FB0CE001250134E4E735B101A8FDF7F5
:103CFC0037FA01A803F050FA01E003F05FFA31B093
:103D0C00F0BD00BFA0F40300C0F2030010B5446D79
:103D1C008EB094B1836DB0F85C20603313440344CF
:103D2C000C93B0F85E30ADF83430002103AB019346
:103D3C00009104200A460B46A0470EB010BD7047F8
:103D4C0008B5838903F004039BB202464BB10846C5
:103D5C0002F11E01202206F0EBFAB0FA80F04009C5
:103D6C0008BD184608BD00002DE9F04F99B0164665
:103D7C0005930388BDF88870BDF894809A070446B3
:103D8C008A4601D5851C6DE000F1120B584607A937
:103D9C00FFF750F80546002863D123885B0701D450
:103DAC00012083E058464FF48071424A02F02CFF08
:103DBC000028F5D0304637F063FB431C0493BDF864
:103DCC0010B008F160003844584480B2294612F013
:103DDC007FFB002869D011F0E1FF374A856080E84D
:103DEC002400814600F10C0204F1300E2068616859
:103DFC00154603C5083474452A46F7D12068286057
:103E0C00002109F14000102206F08BFA239BC9F81F
:103E1C00543009F16004049BC9F8583020463146EF
:103E2C005A4689F850A0A9F85C70A9F85E8006F093
:103E3C00F1F9D9F85820059914442046B9F85C20BA
:103E4C0006F0E8F9B9F85C002499B9F85E20204432
:103E5C0006F0E0F9484640F2DC5113F029FA002054
:103E6C0024E007AD0DF12C0B58460021342237F01D
:103E7C007BFA638EADF84030104B119301238DF813
:103E8C004830249B239A14930D4B0097002A18BF9B
:103E9C0013460193CDF808B0284651463246059B8F
:103EAC00ADF8548029F0F0FD00E0182019B0BDE801
:103EBC00F08F00BFD13E0000E0C50300F0C5030049
:103ECC00BB3F00002DE9F0419AB003289846BDF89D
:103EDC00807059D1382F57DD0025ACB2A7F10E03F5
:103EEC009C4251DA08EB040029490E2206F020FA14
:103EFC00013506460028F0D104F10E0040442B2178
:103F0C0005AA0DAB01F09EFC00283DD0BDF8343065
:103F1C00B3F5807F38D1219D10352946324605A84E
:103F2C00FEF70EFF012300931A481B491B4A05ABF1
:103F3C0013F076FA04463CB302230DF13600294601
:103F4C001022A66DB4F85C70ADF8343006F062F94E
:103F5C00E38FADF86630B4F85C3094F850100093F1
:103F6C0004F160084644636D019337440297B4F83A
:103F7C005E300393424633460DA8FFF7F5FE6368A7
:103F8C00002262601C46D6E71AB0BDE8F08100BF83
:103F9C005CCA030050430020E0C503004D3D000007
:103FAC0020B901F110008021FEF790BF70470199F4
:103FBC00FFF7F6BF042808D048B1012809D0022821
:103FCC0009D003280DD1042306E0002304E00123CB
:103FDC0002E0022300E00323034A02EBC303586808
:103FEC0070470248704700BF5CC5030084C50300DE
:103FFC0007B51346426E996A12789A761A8C00911C
:10400C001846D9695B6A0CF0C9F8002003B05DF85A
:10401C0004FB00002DE9F0410546CEB000218422BE
:10402C002DA837F0A1F9FF27A868A989554A8DF862
:10403C00B4702DABFDF701FB002800F09E8002AEA2
:10404C0005F17A00314602F0D7FF2B6910330FCB04
:10405C0006AC84E80F009DF8B43063744C9B63612C
:10406C00B5F8683023836B6E27741B78A3764FF6F4
:10407C00FF73238404AF00230DF1B50011A90122B5
:10408C00E6616762A36201F0EDFB002875D09DF834
:10409C007230002B71D130460DF1460102F0A5FFB4
:1040AC0000286AD09DF87030A968AA8923741EA8CC
:1040BC00FDF720F91EA8A021FDF729F900285CD0F6
:1040CC001EA80021FDF773F9602813D11EA8062144
:1040DC00022201ABFDF750F998B101A82A4937F03B
:1040EC00BDF970B91EA8A021FDF711F9002844D024
:1040FC0067623AE0FF2840D01EA8FDF77DF9002842
:10410C003BD01EA8FDF778F9D8E71EA8FDF774F987
:10411C00002832D01EA8FDF76FF970B31EA800213D
:10412C00FDF745F920BB02211EA80A4601ABFDF79D
:10413C0023F910B34046BDF804100122FDF7EEFB45
:10414C0006460028E6D01EA8317D328A3B46FDF794
:10415C0013F90028DED0B38823843369A362284680
:10416C000A491EAA2346FFF791FAD4F81C80D5E71A
:10417C00FF28CAD102F0F6FF01E003F01CF84EB0A4
:10418C00BDE8F08100C60300FCF90300FD3F000010
:10419C00163011F0B7BD000008B503680349D868A4
:1041AC0037F05CF9B0FA80F0400908BD40C6030056
:1041BC002DE9F0410646124803880F46904613B984
:1041CC000020BDE8F081002112F0ADFB054600286F
:1041DC00F6D0284611F0E2FD0378B342044607D12D
:1041EC003846A11C02F001FF10B1237A434504D0DC
:1041FC002946034812F0C1FBE8E72046BDE8F081F0
:10420C00522E002038B50A78037B9A4204460D469C
:10421C0001D0002038BD881C04F10E0102F0E5FE2F
:10422C000028F6D02A7A237D9A42F2D1E08AB0FA9D
:10423C0080F0400938BD38B50A78037B9A420446B1
:10424C000D4601D0002038BD881C04F10E0102F08F
:10425C00CCFE0028F6D02A7A237D9A42F2D1E08A4D
:10426C00003018BF012038BD2DE9F04F85B0002378
:10427C0000F102090446ADF80C3003AA4FF6FE73A8
:10428C000078ADF80E3049460BF0FCFDBDF80E3051
:10429C00BDF80C202283638323B94FF6FF739A4237
:1042AC006BD101E09A4268D8E368384D002703F1DE
:1042BC001C0A3E462868494602F084FE002862DC4F
:1042CC0056D1EB88590753D05A0651D5DB0433D558
:1042DC00D5F81080E36808EB060B9B4504D92C48F5
:1042EC0040F24A2105F07AFD2B7D1C36012B264429
:1042FC0008D0022B12D13046FF211FFA88F206F0AB
:10430C0010F810E01FFA88F23046002106F009F888
:10431C0006EB0803802203F8012C04E01C484FF440
:10432C00237105F05BFD33462078AA88CDF8008018
:10433C0049460BF0A5FD5E46D5F810B023690BEB92
:10434C000708984504D9124840F25B2105F046FD58
:10435C0057442744207829463A465B46FDF76EFBC6
:10436C0028B1384600211FFA8BF205F0DAFF4746D8
:10437C00084B18359D429DD105E0054840F233218C
:10438C0005F02CFD90E705B0BDE8F08F30F503008B
:10439C0053C6030030F803002DE9F8431D4C0025EB
:1043AC0080460F4604F540792E4654F8060C3946E3
:1043BC0002F008FE00280FDC0BD12388590708D027
:1043CC005A0606D513F4805FD4F80A3018BFF618D5
:1043DC001D4418344C45E8D170191C3080B20021B2
:1043EC0012F076F8044688B111F0D8FC024602F8B7
:1043FC00028B3968C0F80210B9889180FF220272D2
:10440C000022C66005614261FFF72EFF2046BDE821
:10441C00F88300BF36F50300F0B5234B89B01A883A
:10442C00ADF80620002205460E461A800DF1060056
:10443C0012F074FA044678B921460DF1060012F018
:10444C00B7FA074611F0AAFC8542EFD01648394658
:10445C00224612F06EFAE9E726B30024E6B23246A1
:10446C00182302A8102106F079F99DF808202B7862
:10447C009DF810709A4208D10DF10A00A91C02F0A7
:10448C00B4FD10B12B7ABB4203D00134042CE5D11E
:10449C0008E0FF238DF808301020314602AA1823BB
:1044AC0006F094F909B0F0BD522E002070B590B012
:1044BC00054601210024FFF7AFFF1949194A009462
:1044CC002B46194812F0ACFF2B46009416481449A1
:1044DC00164A12F0A5FF2B7AFBB1E6B2304603A9BF
:1044EC00FEF71CF9B0B12A789DF80C309A4211D124
:1044FC00A81C0DF10E0102F078FD58B12A7A9DF836
:10450C003C309A4206D10023304603A98DF83C304A
:10451C00FEF718F90134082CDFD110B070BD00BFC4
:10452C00E4C6030011420000504300204342000047
:10453C0037B5002304460D46009316491648174A12
:10454C00234612F06DFF6B1C014621D02369FBB191
:10455C0038B9182011F0BCFFD0B111F01FFC014686
:10456C00B0B100220B4B0B604A6023780B732346CF
:10457C0053F8020FC1F80E009B884B82237A0B75FF
:10458C00CA820846294603B0BDE8304012F090BEFE
:10459C0003B030BDE4C603005043002011420000BC
:1045AC002DE9F04F0346DFB0007B1A7D03F10E01BD
:1045BC00FFF7FEFD044608B103692BB98F484FF491
:1045CC003A7105F00BFC15E1418B19B14FF47A737C
:1045DC00594301E04FF0FF312046FFF7A9FF0021BE
:1045EC00382203A836F0C0FE0423ADF80C30844BFF
:1045FC000DF11E0203F1200153F8040B42F8040BD9
:10460C008B42F9D141F23363264620ADADF83E30F2
:10461C0016F8023B8DF8403078220021284636F0FF
:10462C00A3FE294603A801F0ADF82F222B182A541B
:10463C00314620220020013300F0D7FF11A83EA9FB
:10464C008022FCF783FD002800F0D48011A80521FE
:10465C0000226C4BFCF7EAFC002800F0CB8011A880
:10466C000221012204F10803FCF7E0FC002800F011
:10467C00C18011A805210022634BFCF7D7FC002850
:10468C0000F0B88011A8052100222B46FCF7CEFCC7
:10469C00002800F0AF8011A8052100225B4BFCF72D
:1046AC00C5FC002800F0A68011A8A021FCF72FFD66
:1046BC00002800F09F80E368554D03F11C0805F5B8
:1046CC00407A00272868314602F07CFC002806DD81
:1046DC0011A8FCF745FD002800F08C8022E01DD1CC
:1046EC00EB885A071AD05B0618D5D5F810B0236999
:1046FC000BEB0709994504D9404840F23D3105F0D0
:10470C006DFB07EB08032178CDF800B011A82A4601
:10471C002344FDF7E0F900286CD04F461835554579
:10472C00D0D1D5E7FE238DF80B3011A8052100223E
:10473C00384BFCF77BFC00285CD011A8022101222D
:10474C000DF10B03FCF772FC002853D011A8FCF7F9
:10475C0007FD00284ED00CF034F9606111A8FCF76D
:10476C00D3FC002281B23EA811F02DFF0746002891
:10477C0040D0236923B9214840F2EA3105F02EFBE1
:10478C000023009324482549254A234612F048FE6D
:10479C00054640B91820294611F09AFE50B311F085
:1047AC00FDFA054630B31D4B2B6000236B6023785C
:1047BC002B733368C5F80E30B3886B82237A194C8F
:1047CC002B752388EF8243B905F0A2FF0A23B0FBB7
:1047DC00F3F202FB1300053020800CF0F2F8218874
:1047EC004FF47A735943884234BF091A0021284682
:1047FC0012F05EFD5FB0BDE8F08F00BF53C6030042
:10480C0055300020A4FF0300F2D20300FCF9030092
:10481C0030F503006C04040050430020E4C6030090
:10482C0043420000502E002070B5C38ABAB0044633
:10483C0013B9FFF7B5FE74E000F10E052946007BB5
:10484C00227DFFF7B5FC08B103692BB9364840F25D
:10485C00713105F0C3FA64E000238DF817309DF830
:10486C001760072E5DD8002110A8322236F07CFD8F
:10487C00304610A9FDF752FF00284ED0227B9DF840
:10488C0040309A4249D128460DF1420102F0ADFB6D
:10489C00002842D0227D9DF870309A423DD12846A6
:1048AC0006A902F0A9FB08AB06A96E221BA800F012
:1048BC009CFEE08A11F072FA0646E08A11F08AFA40
:1048CC00314602462BA8FCF712FC2D9B9A1E2C920B
:1048DC0013F8033C622B04D0134840F28F3105F0DF
:1048EC007DFA2BA8022101220DF11703FCF79EFB88
:1048FC00B8B11DA910A8FDF790FF2BA82B9EFCF7B3
:10490C0003FC002280B200900192029203921DA837
:10491C00022108AA3346FFF727FA9DF81730013316
:10492C009BE73AB070BD00BF53C603002DE9F04FB2
:10493C00804693B0084611F031FAB8F80C100746CF
:10494C0019B97B8B3A8B53B113E0D8F808005C4A49
:10495C003B46FCF772FE0028F3D10020ADE04FF689
:10496C00FF739A42F9D1574C002604F5407B35462B
:10497C0007E09A42F1D8F6E70DD018345C4500F008
:10498C009B8054F8040C08F17A0102F01BFBB0F187
:10499C00000AF1DD90E0B4F8029019F0070FECD0AA
:1049AC0019F0400FE9D003A8D8F80810B8F80C207B
:1049BC00FCF7A0FC03A8A021FCF7A9FC002875D0EB
:1049CC0003A80021FCF7F3FCBAF1000F12D048BB8E
:1049DC00022103A80A460DEB0103FCF7CDFC0028CD
:1049EC0064D0BDF8022023889A421BD119F4805F51
:1049FC001CD12DE0602815D103A80621082201AB9B
:104A0C00FCF7BAFC002851D001A82F4936F026FD3E
:104A1C0040B903A8A021FCF77AFC002846D04FF03F
:104A2C00010ACDE703A8FCF7E7FCC7E7E568FB68DC
:104A3C00AA199A4204D9254840F2DD1105F0CEF9A5
:104A4C006388DB0406D4214840F2395105F0C6F9DD
:104A5C0001252BE003A8A021FCF759FC0028F7D076
:104A6C0003A80021FCF7A3FC60281BD103A8062196
:104A7C00082201ABFCF780FC0028E9D0144901A8FE
:104A8C0036F0ECFC014668B903A8FCF790FC002852
:104A9C00DED106F11C0303A80221AAB23B44FCF7A9
:104AAC006BFCD5E703A8FCF7A7FCD7E719F4805FEC
:104ABC001CBFE368F61860E7284613B0BDE8F08F1A
:104ACC0028C6030034F50300FCF9030053C60300A9
:104ADC00A4FF03002DE9F043044687B08846002666
:104AEC00FF27F5B22A4618236846102105F036FE3A
:104AFC009DF8002023789DF808909A4208D10DF17A
:104B0C000200A11C02F071FA10B1237A4B4510D0AF
:104B1C00FF2F08D19DF80030FF2B04D1B8F1000F06
:104B2C000CBFFF272F460136042EDAD1FF2F3D464E
:104B3C0031D02A4618236846102105F00FFE237841
:104B4C008DF80030234653F8022FCDF802209B88B5
:104B5C00ADF80630E268237A8DF80830238BADF877
:104B6C001030022A638BADF8123005D90C4840F294
:104B7C00F95105F033F90EE0039205A804F11C017C
:104B8C0092B205F047FB102029466A46182305F01F
:104B9C001DFE012000E0002007B0BDE8F08300BF3F
:104BAC0053C603002DE9F3478046894611F0F6F809
:104BBC002C4B00241A88ADF8062007461C8026468C
:104BCC000DF1060011F0AAFE054638BB29460DF181
:104BDC00060011F0EDFE824611F0E0F80546BCB976
:104BEC003A7803789A4213D1B81CA91C02F0FDF94B
:104BFC0070B12B7AB34207D922463E72194841460E
:104C0C0011F097FE012403E0FF2E1CBF0136F6B213
:104C1C0014485146002211F08CFED1E73CB9FF2E0E
:104C2C001AD03E720F484146224611F082FE3B6973
:104C3C009BB1B9F1000F0AD038460121FFF74AFFAA
:104C4C00044620B938462146FFF7E6FB04E0384617
:104C5C000021FFF76DFC00E02546284602B0BDE8B8
:104C6C00F08700BF522E00202DE9F047002586B0BA
:104C7C0068461021EAB2182305F070FD9DF800007B
:104C8C00FF283BD00DF102019DF80820FFF790FAA8
:104C9C00044678B99DF800000DF10201FFF77CFB8A
:104CAC00064618B92F4840F2B25121E011F076F8BF
:104CBC00044600E00026E268039B9A4203D0294890
:104CCC0040F2BC5114E0BDF810302383BDF8123013
:104CDC00638304F11C0005A992B205F09BFA56B14E
:104CEC0030460021FFF75EFF28B91E484FF4B9612A
:104CFC0005F074F805E09DF8083023720135042D99
:104D0C00B6D100250EE014F808903946484600222A
:104D1C00FFF74EFA90B10436DAF804309F59002FA1
:104D2C00F1D10135104B1B689D4218D20F4B4FEA45
:104D3C00C50808EB030A00261C46EDE74846394631
:104D4C00FFF72AFB28B9074840F22B6105F046F81B
:104D5C0005E00121FFF726FF0028DCD1F3E706B0C0
:104D6C00BDE8F08753C60300A0F40300C0F20300B3
:104D7C00014810F0C7BF00BF522E002030B589B0DB
:104D8C0010B103281FD023E0124B04461880E5B263
:104D9C0002A810212A46182305F0E0FCFF238DF809
:104DAC0008301020294602AA1823013405F00EFD04
:104DBC00042CECD1012300930749084A084800232E
:104DCC0012F02EFB04E0034B1B880BB9FFF74CFFD2
:104DDC0009B030BD522E0020E4C60300A5410000EE
:104DEC00504300202DE9F04F97B00690079167488B
:104DFC00002111F098FD8246002800F0C480504636
:104E0C0010F0CCFF069A03789342044640F0B08031
:104E1C00831C19460798029302F0E7F803900028C8
:104E2C0000F0A6800BF0CDFD65692369451B002BB6
:104E3C0000F0A380E368564E1C3300270593BB4655
:104E4C003068029902F0BEF8002800F396807ED1FB
:104E5C00B6F8068018F0070F79D018F0400F76D00E
:104E6C0008F480581FFA88F8B8F1000F09D033699C
:104E7C00E2685B44934204D9464840F25B4104F03B
:104E8C00ADFFD6F8109009EB07030493049A23693D
:104E9C009A4204D93F4840F25E4104F09FFF2078CB
:104EAC00314608AA0823FCF7C9FD00284AD1059B06
:104EBC00FA182244B8F1000F3CD0377D7B1E012B31
:104ECC0032D809F101080AA841464B460097FDF774
:104EDC00A3F90DA8414608AA4B460097FDF79CF98B
:104EEC000BF11C0210A8414622444B460097FDF7DB
:104EFC0093F943460AA80DA913AAFDF769F95FFABD
:104F0C0089F3434521D216AAD11811F8182C11F89F
:104F1C000C1C8A4219D8914202D8013BDBB2F0E753
:104F2C00039B93B1218B18E01A4840F2EB4104F03B
:104F3C0055FF0AE0104608A91FFA89F205F0F8F9A6
:104F4C0020B1EFE7B8F1000F00D0CB44049F124B17
:104F5C0018369E427FF474AF0FE04FF47A735943C6
:104F6C008D4201D3002100E0491B2046FFF7E0FAF7
:104F7C005146064811F001FD3DE7618B0029ECD14B
:104F8C004FF0FF31F1E717B0BDE8F08F522E002043
:104F9C0030F5030053C6030030F8030008B5FFF7E3
:104FAC0007F9003018BF012008BD00002DE9F041C1
:104FBC00B0F86850B4B0044615B102F0FFF872E0D6
:104FCC000378012B02D0022B30D067E005A814A97E
:104FDC008022FCF785F990B33448294611F0A3FCE4
:104FEC000546D8B1284610F0D9FE636E1A780378BE
:104FFC009A4206460DD104F17A00B11C01F0F5FF7E
:10500C0038B105A80221012206F10803FCF70EF8BD
:10501C00A8B12946254811F0B0FCE1E705A8FCF73A
:10502C009FF860B105A802F0B7F83CE0436E00F1C0
:10503C007A0631461878FFF7AFF9074610B902F037
:10504C0093F930E010F0AAFE394680462046FFF76F
:10505C006DFC00B338460121FFF7A4FDB0B1636EBF
:10506C00059534A81B7800F8BC3D98F8082000235F
:10507C00CDE9002314AC0123029303943146722230
:10508C0000F0D3FA204602F057F80CE08921A0205A
:10509C0002F034F807E002F08EF804E0044840F225
:1050AC00BB6104F09BFE34B0BDE8F081522E0020B1
:1050BC0053C603002DE9F043B0F86850B1B0044674
:1050CC0015B102F07BF80FE10378032B00F0AC80F4
:1050DC00042B00F0E080012B40F00181436E94F82A
:1050EC007820187804F17A01FFF762F8064610B9B7
:1050FC007F48E321DCE001A810A98022FCF726F808
:10510C00002800F0D78001A805212A46794BFBF72F
:10511C008DFF002800F0CE80022101A80A4606F17E
:10512C001803FBF783FF002800F0C48001A80521B9
:10513C002A46714BFBF77AFF002800F0BB80022156
:10514C0001A80A4606F11A03FBF770FF002800F0CD
:10515C00B18001A805210022684BFBF767FF0028EE
:10516C0000F0A88001A8A021FBF7D1FF002800F0D7
:10517C00A180634C002504F5407954F8040CB11C53
:10518C0001F020FF002805DD01A8FBF7E9FF00284E
:10519C0041D18FE03BD16788790738D07A0636D574
:1051AC00022101A80A462346FBF740FF002800F025
:1051BC00818001A8A021FBF7AAFF00287AD0FB046C
:1051CC001ED5D4F80C80F36808EB05079F4204D970
:1051DC0047484FF48F7104F001FE01A8052100220D
:1051EC00484BFBF723FF002864D005F11C0301A8F2
:1051FC00217C1FFA88F23344FBF718FF08B959E0F9
:10520C002F4601A8FBF7ACFF002853D03D461834BD
:10521C004C45B2D1B8E701A8FBF7A2FF002849D052
:10522C0001A801F0B9FF5FE0436E94F8782018787C
:10523C0004F17A01FEF7BCFF064618B92C4840F27F
:10524C00451135E0C168036919441C3189B22A46FD
:10525C0011F0B9F9074668B320463946FFF766FBEB
:10526C00B0B1384610F09AFD0446384610F0B2FD45
:10527C0021460246304604F0CDFF29463046FFF762
:10528C0029FC30462946FFF753F901F06BFF2BE060
:10529C0001F091FF28E0436E94F87820187804F11F
:1052AC007A01FEF785FF054638B9114840F26711BF
:1052BC0004F094FD02F058F816E0047A54B9FEF7A5
:1052CC00D3FF21462846FFF705FC28462146FFF769
:1052DC002FF901E0FFF7EAF801F040FF04E0044881
:1052EC0040F2D66104F07AFD31B0BDE8F08300BF26
:1052FC0053C6030066D20300FBC80300FCF903008D
:10530C0034F50300A4FF030038B505460D480388A7
:10531C00BBB1002111F007FB044670B1204610F020
:10532C003DFD0378AB4203D1FFF7C0F80548F0E729
:10533C002146044811F021FBEEE7BDE83840FFF7A9
:10534C0093BC38BD522E002010B50139034611F81C
:10535C00012F1C4603F8012B002AF8D1201A10BD8E
:10536C0003464138C0B2192814D9A3F16102192A95
:10537C0001D8473B04E0A3F13002092A02D80433D8
:10538C00D8B270472D2B04D05F2B0CBF3F20FF20D1
:10539C0070473E2070472DE9F84F0026904602F1E9
:1053AC002009074600EB010A1546B346574503D1C1
:1053BC00C8EB0500BDE8F88F4D45F9D217F8010B85
:1053CC00FFF7CEFFFF2813D0B41DE3B2072B40EA42
:1053DC008B1088BFA3F108041FFA80FB81BF4BFA26
:1053EC0004F32B70B31EDBB288BF01351E46DDE71C
:1053FC004FF0FF30BDE8F88F042970B505460C4618
:10540C00164612D801200021E20035F08FF810F179
:10541C00FF3041F1FF310023994208BFA8420AD264
:10542C0008482F2104F0DAFC05E006482A2104F094
:10543C00D5FC082CE6D1304603492A4635F0DCFF72
:10544C00C0B270BD34C70300FAC8030070B58378CE
:10545C0006460D46084633B90949FFF775FF012189
:10546C002C18307805E00749FFF76EFF2C183088B0
:10547C0002212246FFF7C0FF2044401B70BD00BF35
:10548C0026CB0300BDC703002DE9F0410F4684462F
:10549C0001309CF80030302B02D117B1013FF6E7F8
:1054AC0017B9002000212DE07B1C112B2FD80CF1FB
:1054BC00FF3E002000219EF80130A3F13006F6B229
:1054CC00092E0EF101080CD9A3F16106052E01D8A5
:1054DC00573B04E0A3F14106052E18D8373BDBB24D
:1054EC0000E033460D01040145EA1075E0186FF039
:1054FC000103CEEB03033B4445F100011CEB030F0E
:10550C00C646D8D1C2E900010120BDE8F0810020D7
:10551C00BDE8F08131B10378302B01D1012901D8DC
:10552C00FFF7B2BF0020704770B50378002B0CBF9B
:10553C00632373230B70064640880D464C1C38B110
:10554C0022460221FFF758FF20445F23441C0370BE
:10555C00B08802212246FFF74FFF2044401B70BD4C
:10556C002DE9FF470378632B0F46904603D0732B2E
:10557C0004D0002036E04FF0000901E04FF00109A3
:10558C00461C7C1E30465F21224635F0C3FE824607
:10559C0020B900220023CDE9002312E0851BADB217
:1055AC00042DE6D8304629466A46FFF7B3FF00289B
:1055BC00DFD0DDE900231343DBD0BC1E0AF101066A
:1055CC00641B042CD5D83046214602AAFFF7A2FF53
:1055DC000028CED0009BA8F80230029B88F80090DF
:1055EC00A8F8043004B0BDE8F087F8B50F461646AD
:1055FC001D4638B11946FFF729FF2F232C1801340B
:10560C002B5400E01C4638462146FFF78DFFA6F1CF
:10561C006102192A04EB00039FBF2F2222545E70F3
:10562C00023300221A70581BF8BD70B5079D049EFA
:10563C002B46FFF7DAFF2C1801342F232B54069935
:10564C0030462246FFF7D8FE2044401B70BD0000B8
:10565C00B1F5807FF8B506460C46174604D91148BB
:10566C0040F2951104F0BAFB24F00304A4B23846BE
:10567C000023A34212D2C3F3C7021F2A0CD8B15C79
:10568C00094A03F00705C5F10405294101F00F0192
:10569C000130525C00F8012C0433EAE7002303705C
:1056AC00C01BF8BD34C70300C4C703002DE9F0418B
:1056BC0080460F4616460025ECB2BC4209D218F8BB
:1056CC000400FFF74DFEFF2806D006B1305501351A
:1056DC00F2E70120BDE8F0810020BDE8F081000078
:1056EC00F0B500284AD0002A45D0B1F5807F44D8C7
:1056FC0011F0070441D1C90806461346A5B28D42E4
:10570C0035D2055D1E4FAD0804F1010E7D5D1D7097
:10571C00055D8E4505F003054FEA051521DA96F86F
:10572C0001E045EA1E1504F1020E7D5D5D70757891
:10573C008E45B8BF96F802E005F00F054FEA8505D7
:10574C00B7BF45EA9E157D5D7D5D9D70B5BFB57893
:10575C009D7005F03F050333BEBF7D5DDD700433E6
:10576C0002E07D5D5D70023303340336C6E7002131
:10577C001970981AF0BD1046F0BD0020F0BD00BFA6
:10578C00F4C60300F8B50388DA070E460746084648
:10579C004CBF27492749FFF7D7FD351838888307B1
:1057AC0011D56C1C5B232B70B81C2146282217F0DA
:1057BC007FFD00283BD0204635F062FE5D23251886
:1057CC000135235418E000F0040084B26CB1284673
:1057DC001949FFF7B9FD05442A4607F112004FF4A9
:1057EC008071FFF77DFF054406E0144840F2091173
:1057FC0004F0F4FA2046F8BD3B887A8E13F0010FC2
:10580C0041F2336141F2346308BF0B469A4204D033
:10581C0028460B4935F0F0FD05446C1C2F232B70EA
:10582C0007F134002146FFF711FE2044801BF8BD20
:10583C00D5C70300DEC7030062CA030034C70300E8
:10584C00E6C7030038B51C4608B9002038BD002A4D
:10585C00FBD0FFF7A0FD0028F7DB0CB1C0002080C7
:10586C00012038BD2DE9F0410D468AB016465B4942
:10587C000722044635F00CFE20B90734287241F299
:10588C0033630BE020465649082235F001FE002810
:10589C0059D101232B72083441F234636B85237880
:1058AC005B2B20D1013420465D2135F0C9FD074624
:1058BC00002848D0C4EB0008B8F1270F43DC0021C6
:1058CC002822684635F050FD684621461FFA88F2BA
:1058DC0004F0A0FC684605F1090117F0FCFC90B33C
:1058EC007C1C002315E020463E49082235F0D0FDF3
:1058FC0048BB04F108002B2105F109026B46FFF7A8
:10590C00A1FF00B3BDF80030B3F5807F1BD1333459
:10591C00012385F8293023783A2B16D10023013442
:10592C006B850BE06B8D0A2202FB0300B0F5803F08
:10593C0009DA688514F8013F2F2B06D0207812F075
:10594C003FF80928EED9002045E023782F2BFAD117
:10595C00671C38462449062235F09AFD30B138468A
:10596C002249062235F094FD0028ECD104F10708F9
:10597C0040462F2135F064FD074620B9404635F0EE
:10598C007FFD08EB00074046391A6A46FFF7C2FD57
:10599C0008B36379652B009B0BBF85F82C30AB8566
:1059AC000023012385F82E3039781EB9B1FA81F025
:1059BC00400910E02F29C6D10137384635F040FD9B
:1059CC00014618B9384635F05BFD39183846C91B05
:1059DC00AA1CFFF7C5FD0AB0BDE8F081DEC70300C5
:1059EC00D5C7030062CA030026CB0300BDC7030062
:1059FC000139013811F8013F2BB110F8012F9A42EF
:105A0C00F8D0002070470120704708B5036D984707
:105A1C00B0FA80F0400908BD704790F8443001336B
:105A2C0080F844307047704710B5036D04469847B2
:105A3C0040B1E36C204698470078A0F180035842AF
:105A4C00584110BD012010BD8068704710B5044648
:105A5C00836D9847E36D2046FF2100229847002173
:105A6C00236E20460A469847636E2046FF2100228B
:105A7C009847A36E20469847236F2046BDE81040F8
:105A8C00184710B504460830FBF76AFB08B9022327
:105A9C00237110BD10B504460830FBF761FB08B943
:105AAC000223237194F84430013384F8443010BD40
:105ABC001FB50446F0B1FF2913D092B10223009315
:105ACC0008460DF10E0311464FF6FD72FBF7F2FF7F
:105ADC0080B920460A49BDF80E2035F08DFC2044D3
:105AEC0005E02046074935F0C3FC04F10A00001B11
:105AFC0080B201E04FF6FF7000B204B010BD00BFE1
:105B0C007DCA030038C80300F8B50E461746054693
:105B1C00C8B10F4935F0ACFCEC1D2FB120460D4936
